{
  "contractName": "SmartInvoice",
  "abi": [
    {
      "inputs": [
        {
          "internalType": "uint256",
          "name": "_amount",
          "type": "uint256"
        },
        {
          "internalType": "uint256",
          "name": "_dueDate",
          "type": "uint256"
        },
        {
          "internalType": "contract IERC20",
          "name": "_assetToken",
          "type": "address"
        },
        {
          "internalType": "address",
          "name": "_beneficiary",
          "type": "address"
        },
        {
          "internalType": "address",
          "name": "_payer",
          "type": "address"
        },
        {
          "internalType": "string",
          "name": "_referenceHash",
          "type": "string"
        }
      ],
      "payable": false,
      "stateMutability": "nonpayable",
      "type": "constructor"
    },
    {
      "constant": true,
      "inputs": [],
      "name": "amount",
      "outputs": [
        {
          "internalType": "uint256",
          "name": "",
          "type": "uint256"
        }
      ],
      "payable": false,
      "stateMutability": "view",
      "type": "function"
    },
    {
      "constant": true,
      "inputs": [],
      "name": "assetToken",
      "outputs": [
        {
          "internalType": "contract IERC20",
          "name": "",
          "type": "address"
        }
      ],
      "payable": false,
      "stateMutability": "view",
      "type": "function"
    },
    {
      "constant": true,
      "inputs": [],
      "name": "beneficiary",
      "outputs": [
        {
          "internalType": "address",
          "name": "",
          "type": "address"
        }
      ],
      "payable": false,
      "stateMutability": "view",
      "type": "function"
    },
    {
      "constant": true,
      "inputs": [],
      "name": "dueDate",
      "outputs": [
        {
          "internalType": "uint256",
          "name": "",
          "type": "uint256"
        }
      ],
      "payable": false,
      "stateMutability": "view",
      "type": "function"
    },
    {
      "constant": true,
      "inputs": [],
      "name": "payer",
      "outputs": [
        {
          "internalType": "address",
          "name": "",
          "type": "address"
        }
      ],
      "payable": false,
      "stateMutability": "view",
      "type": "function"
    },
    {
      "constant": true,
      "inputs": [],
      "name": "referenceHash",
      "outputs": [
        {
          "internalType": "string",
          "name": "",
          "type": "string"
        }
      ],
      "payable": false,
      "stateMutability": "view",
      "type": "function"
    },
    {
      "constant": true,
      "inputs": [],
      "name": "status",
      "outputs": [
        {
          "internalType": "enum SmartInvoice.Status",
          "name": "",
          "type": "uint8"
        }
      ],
      "payable": false,
      "stateMutability": "view",
      "type": "function"
    },
    {
      "constant": true,
      "inputs": [
        {
          "internalType": "enum SmartInvoice.Status",
          "name": "status",
          "type": "uint8"
        }
      ],
      "name": "getStatusString",
      "outputs": [
        {
          "internalType": "string",
          "name": "",
          "type": "string"
        }
      ],
      "payable": false,
      "stateMutability": "pure",
      "type": "function"
    },
    {
      "constant": false,
      "inputs": [
        {
          "internalType": "address",
          "name": "_newBeneficiary",
          "type": "address"
        }
      ],
      "name": "changeBeneficiary",
      "outputs": [
        {
          "internalType": "bool",
          "name": "",
          "type": "bool"
        }
      ],
      "payable": false,
      "stateMutability": "nonpayable",
      "type": "function"
    },
    {
      "constant": false,
      "inputs": [],
      "name": "commit",
      "outputs": [
        {
          "internalType": "bool",
          "name": "",
          "type": "bool"
        }
      ],
      "payable": false,
      "stateMutability": "nonpayable",
      "type": "function"
    },
    {
      "constant": false,
      "inputs": [],
      "name": "settle",
      "outputs": [
        {
          "internalType": "bool",
          "name": "",
          "type": "bool"
        }
      ],
      "payable": false,
      "stateMutability": "nonpayable",
      "type": "function"
    }
  ],
  "bytecode": "0x60806040523480156200001157600080fd5b506040516200128b3803806200128b833981810160405260c08110156200003757600080fd5b810190808051906020019092919080519060200190929190805190602001909291908051906020019092919080519060200190929190805160405193929190846401000000008211156200008a57600080fd5b83820191506020820185811115620000a157600080fd5b8251866001820283011164010000000082111715620000bf57600080fd5b8083526020830192505050908051906020019080838360005b83811015620000f5578082015181840152602081019050620000d8565b50505050905090810190601f168015620001235780820380516001836020036101000a031916815260200191505b50604052505050600073ffffffffffffffffffffffffffffffffffffffff168373ffffffffffffffffffffffffffffffffffffffff161415620001ce576040517f08c379a00000000000000000000000000000000000000000000000000000000081526004018080602001828103825260198152602001807f62656e65666963696172792063616e6e6f74206265203078300000000000000081525060200191505060405180910390fd5b600073ffffffffffffffffffffffffffffffffffffffff168273ffffffffffffffffffffffffffffffffffffffff16141562000272576040517f08c379a00000000000000000000000000000000000000000000000000000000081526004018080602001828103825260138152602001807f70617965722063616e6e6f74206265203078300000000000000000000000000081525060200191505060405180910390fd5b856000819055508460018190555083600260006101000a81548173ffffffffffffffffffffffffffffffffffffffff021916908373ffffffffffffffffffffffffffffffffffffffff16021790555082600360006101000a81548173ffffffffffffffffffffffffffffffffffffffff021916908373ffffffffffffffffffffffffffffffffffffffff16021790555081600460006101000a81548173ffffffffffffffffffffffffffffffffffffffff021916908373ffffffffffffffffffffffffffffffffffffffff16021790555080600590805190602001906200035b9291906200038d565b506000600660006101000a81548160ff021916908360028111156200037c57fe5b02179055505050505050506200043c565b828054600181600116156101000203166002900490600052602060002090601f016020900481019282601f10620003d057805160ff191683800117855562000401565b8280016001018555821562000401579182015b8281111562000400578251825591602001919060010190620003e3565b5b50905062000410919062000414565b5090565b6200043991905b80821115620004355760008160009055506001016200041b565b5090565b90565b610e3f806200044c6000396000f3fe608060405234801561001057600080fd5b50600436106100a95760003560e01c8063200d2ed211610071578063200d2ed21461029157806338af3eed146102bd5780633c7a3aff14610307578063786716fe14610329578063aa8c217c14610347578063dc07065714610365576100a9565b806307b10446146100ae5780631083f7611461015857806311da60b4146101a2578063123119cd146101c457806318d880fa1461020e575b600080fd5b6100dd600480360360208110156100c457600080fd5b81019080803560ff1690602001909291905050506103c1565b6040518080602001828103825283818151815260200191508051906020019080838360005b8381101561011d578082015181840152602081019050610102565b50505050905090810190601f16801561014a5780820380516001836020036101000a031916815260200191505b509250505060405180910390f35b610160610514565b604051808273ffffffffffffffffffffffffffffffffffffffff1673ffffffffffffffffffffffffffffffffffffffff16815260200191505060405180910390f35b6101aa61053a565b604051808215151515815260200191505060405180910390f35b6101cc61090d565b604051808273ffffffffffffffffffffffffffffffffffffffff1673ffffffffffffffffffffffffffffffffffffffff16815260200191505060405180910390f35b610216610933565b6040518080602001828103825283818151815260200191508051906020019080838360005b8381101561025657808201518184015260208101905061023b565b50505050905090810190601f1680156102835780820380516001836020036101000a031916815260200191505b509250505060405180910390f35b6102996109d1565b604051808260028111156102a957fe5b60ff16815260200191505060405180910390f35b6102c56109e4565b604051808273ffffffffffffffffffffffffffffffffffffffff1673ffffffffffffffffffffffffffffffffffffffff16815260200191505060405180910390f35b61030f610a0a565b604051808215151515815260200191505060405180910390f35b610331610b78565b6040518082815260200191505060405180910390f35b61034f610b7e565b6040518082815260200191505060405180910390f35b6103a76004803603602081101561037b57600080fd5b81019080803573ffffffffffffffffffffffffffffffffffffffff169060200190929190505050610b84565b604051808215151515815260200191505060405180910390f35b60608160028111156103cf57fe5b600060028111156103dc57fe5b141561041f576040518060400160405280600b81526020017f554e434f4d4d4954544544000000000000000000000000000000000000000000815250905061050f565b81600281111561042b57fe5b6001600281111561043857fe5b141561047b576040518060400160405280600981526020017f434f4d4d49545445440000000000000000000000000000000000000000000000815250905061050f565b81600281111561048757fe5b60028081111561049357fe5b14156104d6576040518060400160405280600781526020017f534554544c454400000000000000000000000000000000000000000000000000815250905061050f565b6040518060400160405280600581526020017f4552524f5200000000000000000000000000000000000000000000000000000081525090505b919050565b600260009054906101000a900473ffffffffffffffffffffffffffffffffffffffff1681565b6000600460009054906101000a900473ffffffffffffffffffffffffffffffffffffffff1673ffffffffffffffffffffffffffffffffffffffff163373ffffffffffffffffffffffffffffffffffffffff16146105ff576040517f08c379a00000000000000000000000000000000000000000000000000000000081526004018080602001828103825260158152602001807f6f6e6c792070617965722063616e20736574746c65000000000000000000000081525060200191505060405180910390fd5b60028081111561060b57fe5b600660009054906101000a900460ff16600281111561062657fe5b141561069a576040517f08c379a000000000000000000000000000000000000000000000000000000000815260040180806020018281038252600f8152602001807f616c726561647920736574746c6564000000000000000000000000000000000081525060200191505060405180910390fd5b600154421015610712576040517f08c379a000000000000000000000000000000000000000000000000000000000815260040180806020018281038252601e8152602001807f63616e206f6e6c7920736574746c65206166746572206475652064617465000081525060200191505060405180910390fd5b600260009054906101000a900473ffffffffffffffffffffffffffffffffffffffff1673ffffffffffffffffffffffffffffffffffffffff166323b872dd600460009054906101000a900473ffffffffffffffffffffffffffffffffffffffff16600360009054906101000a900473ffffffffffffffffffffffffffffffffffffffff166000546040518463ffffffff1660e01b8152600401808473ffffffffffffffffffffffffffffffffffffffff1673ffffffffffffffffffffffffffffffffffffffff1681526020018373ffffffffffffffffffffffffffffffffffffffff1673ffffffffffffffffffffffffffffffffffffffff1681526020018281526020019350505050602060405180830381600087803b15801561083557600080fd5b505af1158015610849573d6000803e3d6000fd5b505050506040513d602081101561085f57600080fd5b81019080805190602001909291905050506108e2576040517f08c379a000000000000000000000000000000000000000000000000000000000815260040180806020018281038252601b8152602001807f636f756c64206e6f7420636f6d706c657465207472616e73666572000000000081525060200191505060405180910390fd5b6002600660006101000a81548160ff0219169083600281111561090157fe5b02179055506001905090565b600460009054906101000a900473ffffffffffffffffffffffffffffffffffffffff1681565b60058054600181600116156101000203166002900480601f0160208091040260200160405190810160405280929190818152602001828054600181600116156101000203166002900480156109c95780601f1061099e576101008083540402835291602001916109c9565b820191906000526020600020905b8154815290600101906020018083116109ac57829003601f168201915b505050505081565b600660009054906101000a900460ff1681565b600360009054906101000a900473ffffffffffffffffffffffffffffffffffffffff1681565b6000600460009054906101000a900473ffffffffffffffffffffffffffffffffffffffff1673ffffffffffffffffffffffffffffffffffffffff163373ffffffffffffffffffffffffffffffffffffffff1614610acf576040517f08c379a000000000000000000000000000000000000000000000000000000000815260040180806020018281038252601f8152602001807f6f6e6c792070617965722063616e20636f6d6d697420746f20736574746c650081525060200191505060405180910390fd5b60006002811115610adc57fe5b600660009054906101000a900460ff166002811115610af757fe5b14610b4d576040517f08c379a000000000000000000000000000000000000000000000000000000000815260040180806020018281038252602b815260200180610db5602b913960400191505060405180910390fd5b6001600660006101000a81548160ff02191690836002811115610b6c57fe5b02179055506001905090565b60015481565b60005481565b6000600360009054906101000a900473ffffffffffffffffffffffffffffffffffffffff1673ffffffffffffffffffffffffffffffffffffffff163373ffffffffffffffffffffffffffffffffffffffff1614610c49576040517f08c379a000000000000000000000000000000000000000000000000000000000815260040180806020018281038252601e8152602001807f63616c6c6572206e6f742063757272656e742062656e6566696369617279000081525060200191505060405180910390fd5b600073ffffffffffffffffffffffffffffffffffffffff168273ffffffffffffffffffffffffffffffffffffffff161415610cec576040517f08c379a000000000000000000000000000000000000000000000000000000000815260040180806020018281038252601d8152602001807f6e65772062656e65666963696172792063616e6e6f742062652030783000000081525060200191505060405180910390fd5b600280811115610cf857fe5b600660009054906101000a900460ff166002811115610d1357fe5b1415610d6a576040517f08c379a000000000000000000000000000000000000000000000000000000000815260040180806020018281038252602b815260200180610de0602b913960400191505060405180910390fd5b81600360006101000a81548173ffffffffffffffffffffffffffffffffffffffff021916908373ffffffffffffffffffffffffffffffffffffffff1602179055506001905091905056fe63616e206f6e6c7920636f6d6d6974207768696c652073746174757320696e20554e434f4d4d495454454463616e206e6f74206368616e67652062656e656669636961727920616674657220736574746c656d656e74a265627a7a7231582078478ff64ad22cf351fd0e8a6b9280c95ba0f177b311bf11d47cc1b24124435f64736f6c634300050c0032",
  "source": "pragma solidity ^0.5.0;\n\nimport \"./IERC20.sol\";\n\ncontract SmartInvoice {\n    enum Status { UNCOMMITTED, COMMITTED, SETTLED }\n    function getStatusString(Status status)\n    public\n    pure\n    returns (string memory)\n    {\n        if (Status.UNCOMMITTED == status) {\n            return \"UNCOMMITTED\";\n        }\n        if (Status.COMMITTED == status) {\n            return \"COMMITTED\";\n        }\n        if (Status.SETTLED == status) {\n            return \"SETTLED\";\n        }\n        return \"ERROR\";\n    }\n\n    uint256 public amount;\n    uint256 public dueDate;\n    IERC20 public assetToken;\n    address public beneficiary;\n    address public payer;\n    string public referenceHash;\n\n    Status  public status;\n\n    /**\n     * @dev Constructor that gives msg.sender all of existing tokens.\n     */\n    constructor(uint256 _amount,\n                uint256 _dueDate,\n                IERC20 _assetToken,\n                address _beneficiary,\n                address _payer,\n                string memory _referenceHash) public {\n        require(_beneficiary != address(0), \"beneficiary cannot be 0x0\");\n        require(_payer != address(0), \"payer cannot be 0x0\");\n        amount = _amount;\n        dueDate = _dueDate;\n        assetToken = _assetToken;\n        beneficiary = _beneficiary;\n        payer = _payer;\n        referenceHash = _referenceHash;\n\n        status = Status.UNCOMMITTED;\n    }\n\n    function changeBeneficiary(address _newBeneficiary) public returns (bool) {\n        require(msg.sender == beneficiary, \"caller not current beneficiary\");\n        require(_newBeneficiary != address(0), \"new beneficiary cannot be 0x0\");\n        require(status != Status.SETTLED, \"can not change beneficiary after settlement\");\n        beneficiary = _newBeneficiary;\n        return true;\n    }\n\n    function commit() public returns (bool) {\n        require(msg.sender == payer, \"only payer can commit to settle\");\n        require(status == Status.UNCOMMITTED, \"can only commit while status in UNCOMMITTED\");\n        status = Status.COMMITTED;\n        return true;\n    }\n\n    function settle() public returns (bool) {\n        require(msg.sender == payer, \"only payer can settle\");\n        require(status != Status.SETTLED, \"already settled\");\n        require(now >= dueDate, \"can only settle after due date\");\n        require(assetToken.transferFrom(payer, beneficiary, amount), \"could not complete transfer\");\n        status = Status.SETTLED;\n        return true;\n    }\n\n}",
  "sourcePath": "/Users/nina/Documents/Dev/lo-core/contracts/SmartInvoice.sol",
  "compiler": {
    "name": "solc",
    "version": "0.5.12+commit.7709ece9.Emscripten.clang"
  },
  "schemaVersion": "3.0.19",
  "updatedAt": "2020-02-19T20:04:58.862Z",
  "networkType": "ethereum",
  "devdoc": {
    "methods": {
      "constructor": {
        "details": "Constructor that gives msg.sender all of existing tokens."
      }
    }
  },
  "userdoc": {
    "methods": {}
  }
}